{
  "_format": "hh-sol-artifact-1",
  "contractName": "ParrotProtocol",
  "sourceName": "contracts/Parrot.sol",
  "abi": [
    {
      "anonymous": false,
      "inputs": [
        {
          "indexed": false,
          "internalType": "uint256",
          "name": "id",
          "type": "uint256"
        },
        {
          "indexed": false,
          "internalType": "address",
          "name": "creator",
          "type": "address"
        },
        {
          "indexed": false,
          "internalType": "string",
          "name": "uri",
          "type": "string"
        },
        {
          "indexed": false,
          "internalType": "uint256",
          "name": "price",
          "type": "uint256"
        }
      ],
      "name": "ContentCreated",
      "type": "event"
    },
    {
      "anonymous": false,
      "inputs": [
        {
          "indexed": false,
          "internalType": "uint256",
          "name": "id",
          "type": "uint256"
        },
        {
          "indexed": false,
          "internalType": "address",
          "name": "buyer",
          "type": "address"
        }
      ],
      "name": "ContentPurchased",
      "type": "event"
    },
    {
      "anonymous": false,
      "inputs": [
        {
          "indexed": false,
          "internalType": "uint256",
          "name": "id",
          "type": "uint256"
        },
        {
          "indexed": false,
          "internalType": "address",
          "name": "voter",
          "type": "address"
        },
        {
          "indexed": false,
          "internalType": "uint256",
          "name": "votes",
          "type": "uint256"
        }
      ],
      "name": "Voted",
      "type": "event"
    },
    {
      "inputs": [],
      "name": "contentCounter",
      "outputs": [
        {
          "internalType": "uint256",
          "name": "",
          "type": "uint256"
        }
      ],
      "stateMutability": "view",
      "type": "function"
    },
    {
      "inputs": [
        {
          "internalType": "uint256",
          "name": "",
          "type": "uint256"
        }
      ],
      "name": "contents",
      "outputs": [
        {
          "internalType": "uint256",
          "name": "id",
          "type": "uint256"
        },
        {
          "internalType": "address",
          "name": "creator",
          "type": "address"
        },
        {
          "internalType": "string",
          "name": "uri",
          "type": "string"
        },
        {
          "internalType": "uint256",
          "name": "price",
          "type": "uint256"
        },
        {
          "internalType": "uint256",
          "name": "votes",
          "type": "uint256"
        },
        {
          "internalType": "bool",
          "name": "isActive",
          "type": "bool"
        }
      ],
      "stateMutability": "view",
      "type": "function"
    },
    {
      "inputs": [
        {
          "internalType": "string",
          "name": "_uri",
          "type": "string"
        },
        {
          "internalType": "uint256",
          "name": "_price",
          "type": "uint256"
        }
      ],
      "name": "createContent",
      "outputs": [],
      "stateMutability": "nonpayable",
      "type": "function"
    },
    {
      "inputs": [
        {
          "internalType": "uint256",
          "name": "_id",
          "type": "uint256"
        }
      ],
      "name": "deactivateContent",
      "outputs": [],
      "stateMutability": "nonpayable",
      "type": "function"
    },
    {
      "inputs": [],
      "name": "getActiveContent",
      "outputs": [
        {
          "components": [
            {
              "internalType": "uint256",
              "name": "id",
              "type": "uint256"
            },
            {
              "internalType": "address",
              "name": "creator",
              "type": "address"
            },
            {
              "internalType": "string",
              "name": "uri",
              "type": "string"
            },
            {
              "internalType": "uint256",
              "name": "price",
              "type": "uint256"
            },
            {
              "internalType": "uint256",
              "name": "votes",
              "type": "uint256"
            },
            {
              "internalType": "bool",
              "name": "isActive",
              "type": "bool"
            }
          ],
          "internalType": "struct ParrotProtocol.Content[]",
          "name": "",
          "type": "tuple[]"
        }
      ],
      "stateMutability": "view",
      "type": "function"
    },
    {
      "inputs": [
        {
          "internalType": "uint256",
          "name": "_id",
          "type": "uint256"
        }
      ],
      "name": "purchaseContent",
      "outputs": [],
      "stateMutability": "payable",
      "type": "function"
    },
    {
      "inputs": [
        {
          "internalType": "uint256",
          "name": "_id",
          "type": "uint256"
        }
      ],
      "name": "vote",
      "outputs": [],
      "stateMutability": "nonpayable",
      "type": "function"
    },
    {
      "inputs": [
        {
          "internalType": "uint256",
          "name": "",
          "type": "uint256"
        },
        {
          "internalType": "address",
          "name": "",
          "type": "address"
        }
      ],
      "name": "votes",
      "outputs": [
        {
          "internalType": "bool",
          "name": "",
          "type": "bool"
        }
      ],
      "stateMutability": "view",
      "type": "function"
    }
  ],
  "bytecode": "0x608060405234801561001057600080fd5b50610dda806100206000396000f3fe60806040526004361061007b5760003560e01c8063d23254b41161004e578063d23254b414610110578063e6a9aba31461015b578063f2c016651461017f578063f2d0811f146101a157600080fd5b80630121b93f1461008057806327b697f0146100a257806328f2ac28146100c2578063b5ecf912146100d5575b600080fd5b34801561008c57600080fd5b506100a061009b366004610987565b6101c1565b005b3480156100ae57600080fd5b506100a06100bd3660046109b6565b610313565b6100a06100d0366004610987565b610415565b3480156100e157600080fd5b506100f56100f0366004610987565b610605565b60405161010796959493929190610ab1565b60405180910390f35b34801561011c57600080fd5b5061014b61012b366004610afb565b600260209081526000928352604080842090915290825290205460ff1681565b6040519015158152602001610107565b34801561016757600080fd5b5061017160005481565b604051908152602001610107565b34801561018b57600080fd5b506101946106d2565b6040516101079190610b37565b3480156101ad57600080fd5b506100a06101bc366004610987565b610910565b600081815260026020908152604080832033845290915290205460ff16156102205760405162461bcd60e51b815260206004820152600d60248201526c105b1c9958591e481d9bdd1959609a1b60448201526064015b60405180910390fd5b60008181526001602052604090206005015460ff166102795760405162461bcd60e51b8152602060048201526015602482015274436f6e74656e74206973206e6f742061637469766560581b6044820152606401610217565b600081815260016020526040812060040180549161029683610be3565b9091555050600081815260026020908152604080832033808552908352818420805460ff19166001908117909155858552835292819020600401548151858152928301939093528101919091527f1abe610cf2bf87e57dcc1181fcf5ac0934e843d8344ab9eed6e86c799f62585e9060600160405180910390a150565b60008054908061032283610be3565b90915550506040805160c081018252600080548083523360208085019182528486018881526060860188905260808601859052600160a08701819052938552908390529490922083518155915190820180546001600160a01b0319166001600160a01b03909216919091179055915190919060028201906103a39082610c93565b50606082015160038201556080820151600482015560a0909101516005909101805460ff19169115159190911790556000546040517f412c27a7318aac9979dd1ff80a6b3eb3bc35c9a8c22b7b75d7959605180ab9ac9161040991339086908690610d53565b60405180910390a15050565b6000818152600160208181526040808420815160c08101835281548152938101546001600160a01b0316928401929092526002820180549184019161045990610c0a565b80601f016020809104026020016040519081016040528092919081815260200182805461048590610c0a565b80156104d25780601f106104a7576101008083540402835291602001916104d2565b820191906000526020600020905b8154815290600101906020018083116104b557829003601f168201915b5050509183525050600382015460208201526004820154604082015260059091015460ff16151560609182015281015190915034101561054b5760405162461bcd60e51b8152602060048201526014602482015273125b9cdd59999a58da595b9d081c185e5b595b9d60621b6044820152606401610217565b8060a001516105945760405162461bcd60e51b8152602060048201526015602482015274436f6e74656e74206973206e6f742061637469766560581b6044820152606401610217565b60208101516040516001600160a01b03909116903480156108fc02916000818181858888f193505050501580156105cf573d6000803e3d6000fd5b50604080518381523360208201527f2febd4b8e0a3f915ed8e3f7e154ad8207f9f8d6da9330ad7d5a17909f0e18d5d9101610409565b60016020819052600091825260409091208054918101546002820180546001600160a01b03909216929161063890610c0a565b80601f016020809104026020016040519081016040528092919081815260200182805461066490610c0a565b80156106b15780601f10610686576101008083540402835291602001916106b1565b820191906000526020600020905b81548152906001019060200180831161069457829003601f168201915b50505050600383015460048401546005909401549293909290915060ff1686565b6060600060015b600054811161071c5760008181526001602052604090206005015460ff161561070a578161070681610be3565b9250505b8061071481610be3565b9150506106d9565b5060008167ffffffffffffffff811115610738576107386109a0565b6040519080825280602002602001820160405280156107ad57816020015b61079a6040518060c001604052806000815260200160006001600160a01b031681526020016060815260200160008152602001600081526020016000151581525090565b8152602001906001900390816107565790505b509050600060015b60005481116109075760008181526001602052604090206005015460ff16156108f557600081815260016020818152604092839020835160c08101855281548152928101546001600160a01b031691830191909152600281018054929391929184019161082190610c0a565b80601f016020809104026020016040519081016040528092919081815260200182805461084d90610c0a565b801561089a5780601f1061086f5761010080835404028352916020019161089a565b820191906000526020600020905b81548152906001019060200180831161087d57829003601f168201915b5050509183525050600382015460208201526004820154604082015260059091015460ff16151560609091015283518490849081106108db576108db610d8e565b602002602001018190525081806108f190610be3565b9250505b806108ff81610be3565b9150506107b5565b50909392505050565b600081815260016020819052604090912001546001600160a01b0316331461096c5760405162461bcd60e51b815260206004820152600f60248201526e2737ba103a34329031b932b0ba37b960891b6044820152606401610217565b6000908152600160205260409020600501805460ff19169055565b60006020828403121561099957600080fd5b5035919050565b634e487b7160e01b600052604160045260246000fd5b600080604083850312156109c957600080fd5b823567ffffffffffffffff808211156109e157600080fd5b818501915085601f8301126109f557600080fd5b813581811115610a0757610a076109a0565b604051601f8201601f19908116603f01168101908382118183101715610a2f57610a2f6109a0565b81604052828152886020848701011115610a4857600080fd5b826020860160208301376000602093820184015298969091013596505050505050565b6000815180845260005b81811015610a9157602081850181015186830182015201610a75565b506000602082860101526020601f19601f83011685010191505092915050565b8681526001600160a01b038616602082015260c060408201819052600090610adb90830187610a6b565b6060830195909552506080810192909252151560a0909101529392505050565b60008060408385031215610b0e57600080fd5b8235915060208301356001600160a01b0381168114610b2c57600080fd5b809150509250929050565b60006020808301818452808551808352604092508286019150828160051b87010184880160005b83811015610bd557888303603f19018552815180518452878101516001600160a01b0316888501528681015160c088860181905290610b9f82870182610a6b565b606084810151908801526080808501519088015260a0938401511515939096019290925250509386019390860190600101610b5e565b509098975050505050505050565b600060018201610c0357634e487b7160e01b600052601160045260246000fd5b5060010190565b600181811c90821680610c1e57607f821691505b602082108103610c3e57634e487b7160e01b600052602260045260246000fd5b50919050565b601f821115610c8e57600081815260208120601f850160051c81016020861015610c6b5750805b601f850160051c820191505b81811015610c8a57828155600101610c77565b5050505b505050565b815167ffffffffffffffff811115610cad57610cad6109a0565b610cc181610cbb8454610c0a565b84610c44565b602080601f831160018114610cf65760008415610cde5750858301515b600019600386901b1c1916600185901b178555610c8a565b600085815260208120601f198616915b82811015610d2557888601518255948401946001909101908401610d06565b5085821015610d435787850151600019600388901b60f8161c191681555b5050505050600190811b01905550565b8481526001600160a01b0384166020820152608060408201819052600090610d7d90830185610a6b565b905082606083015295945050505050565b634e487b7160e01b600052603260045260246000fdfea2646970667358221220849c47d47243ea8e64c7923647764d9ce027bfe1b8a4f090e697ab747478309964736f6c63430008140033",
  "linkReferences": {},
  "deployedLinkReferences": {}
}